{
  "contractName": "Dex",
  "abi": [
    {
      "inputs": [],
      "stateMutability": "nonpayable",
      "type": "constructor"
    },
    {
      "anonymous": false,
      "inputs": [
        {
          "indexed": false,
          "internalType": "uint256",
          "name": "tradeId",
          "type": "uint256"
        },
        {
          "indexed": false,
          "internalType": "uint256",
          "name": "orderId",
          "type": "uint256"
        },
        {
          "indexed": true,
          "internalType": "bytes32",
          "name": "symbol",
          "type": "bytes32"
        },
        {
          "indexed": false,
          "internalType": "uint256",
          "name": "price",
          "type": "uint256"
        },
        {
          "indexed": false,
          "internalType": "uint256",
          "name": "amount",
          "type": "uint256"
        },
        {
          "indexed": false,
          "internalType": "uint256",
          "name": "date",
          "type": "uint256"
        },
        {
          "indexed": true,
          "internalType": "address",
          "name": "trader1",
          "type": "address"
        },
        {
          "indexed": true,
          "internalType": "address",
          "name": "trader2",
          "type": "address"
        }
      ],
      "name": "Trade",
      "type": "event"
    },
    {
      "inputs": [],
      "name": "admin",
      "outputs": [
        {
          "internalType": "address",
          "name": "",
          "type": "address"
        }
      ],
      "stateMutability": "view",
      "type": "function",
      "constant": true
    },
    {
      "inputs": [
        {
          "internalType": "address",
          "name": "",
          "type": "address"
        },
        {
          "internalType": "bytes32",
          "name": "",
          "type": "bytes32"
        }
      ],
      "name": "balances",
      "outputs": [
        {
          "internalType": "uint256",
          "name": "",
          "type": "uint256"
        }
      ],
      "stateMutability": "view",
      "type": "function",
      "constant": true
    },
    {
      "inputs": [],
      "name": "nextOrderID",
      "outputs": [
        {
          "internalType": "uint256",
          "name": "",
          "type": "uint256"
        }
      ],
      "stateMutability": "view",
      "type": "function",
      "constant": true
    },
    {
      "inputs": [],
      "name": "nextTradeID",
      "outputs": [
        {
          "internalType": "uint256",
          "name": "",
          "type": "uint256"
        }
      ],
      "stateMutability": "view",
      "type": "function",
      "constant": true
    },
    {
      "inputs": [
        {
          "internalType": "bytes32",
          "name": "",
          "type": "bytes32"
        },
        {
          "internalType": "uint256",
          "name": "",
          "type": "uint256"
        },
        {
          "internalType": "uint256",
          "name": "",
          "type": "uint256"
        }
      ],
      "name": "orderbook",
      "outputs": [
        {
          "internalType": "uint256",
          "name": "id",
          "type": "uint256"
        },
        {
          "internalType": "enum Dex.OrderOperation",
          "name": "operation",
          "type": "uint8"
        },
        {
          "internalType": "address",
          "name": "trader",
          "type": "address"
        },
        {
          "internalType": "bytes32",
          "name": "symbol",
          "type": "bytes32"
        },
        {
          "internalType": "uint256",
          "name": "price",
          "type": "uint256"
        },
        {
          "internalType": "uint256",
          "name": "amount",
          "type": "uint256"
        },
        {
          "internalType": "uint256",
          "name": "filled",
          "type": "uint256"
        },
        {
          "internalType": "uint256",
          "name": "date",
          "type": "uint256"
        }
      ],
      "stateMutability": "view",
      "type": "function",
      "constant": true
    },
    {
      "inputs": [
        {
          "internalType": "uint256",
          "name": "",
          "type": "uint256"
        }
      ],
      "name": "tokenSymbols",
      "outputs": [
        {
          "internalType": "bytes32",
          "name": "",
          "type": "bytes32"
        }
      ],
      "stateMutability": "view",
      "type": "function",
      "constant": true
    },
    {
      "inputs": [
        {
          "internalType": "bytes32",
          "name": "",
          "type": "bytes32"
        }
      ],
      "name": "tokens",
      "outputs": [
        {
          "internalType": "bytes32",
          "name": "symbol",
          "type": "bytes32"
        },
        {
          "internalType": "address",
          "name": "tokenAddress",
          "type": "address"
        }
      ],
      "stateMutability": "view",
      "type": "function",
      "constant": true
    },
    {
      "inputs": [
        {
          "internalType": "bytes32",
          "name": "symbol",
          "type": "bytes32"
        },
        {
          "internalType": "address",
          "name": "tokenAddress",
          "type": "address"
        }
      ],
      "name": "addToken",
      "outputs": [],
      "stateMutability": "nonpayable",
      "type": "function"
    },
    {
      "inputs": [
        {
          "internalType": "bytes32",
          "name": "symbol",
          "type": "bytes32"
        },
        {
          "internalType": "uint256",
          "name": "amount",
          "type": "uint256"
        }
      ],
      "name": "deposit",
      "outputs": [],
      "stateMutability": "nonpayable",
      "type": "function"
    },
    {
      "inputs": [
        {
          "internalType": "bytes32",
          "name": "symbol",
          "type": "bytes32"
        },
        {
          "internalType": "uint256",
          "name": "amount",
          "type": "uint256"
        }
      ],
      "name": "widthraw",
      "outputs": [],
      "stateMutability": "nonpayable",
      "type": "function"
    },
    {
      "inputs": [
        {
          "internalType": "bytes32",
          "name": "symbol",
          "type": "bytes32"
        },
        {
          "internalType": "uint256",
          "name": "amount",
          "type": "uint256"
        },
        {
          "internalType": "uint256",
          "name": "price",
          "type": "uint256"
        },
        {
          "internalType": "enum Dex.OrderOperation",
          "name": "operation",
          "type": "uint8"
        }
      ],
      "name": "limitOrder",
      "outputs": [],
      "stateMutability": "nonpayable",
      "type": "function"
    },
    {
      "inputs": [
        {
          "internalType": "bytes32",
          "name": "symbol",
          "type": "bytes32"
        },
        {
          "internalType": "uint256",
          "name": "amount",
          "type": "uint256"
        },
        {
          "internalType": "enum Dex.OrderOperation",
          "name": "operation",
          "type": "uint8"
        }
      ],
      "name": "marketOrder",
      "outputs": [],
      "stateMutability": "nonpayable",
      "type": "function"
    },
    {
      "inputs": [
        {
          "internalType": "bytes32",
          "name": "symbol",
          "type": "bytes32"
        },
        {
          "internalType": "enum Dex.OrderOperation",
          "name": "operation",
          "type": "uint8"
        }
      ],
      "name": "getOrders",
      "outputs": [
        {
          "components": [
            {
              "internalType": "uint256",
              "name": "id",
              "type": "uint256"
            },
            {
              "internalType": "enum Dex.OrderOperation",
              "name": "operation",
              "type": "uint8"
            },
            {
              "internalType": "address",
              "name": "trader",
              "type": "address"
            },
            {
              "internalType": "bytes32",
              "name": "symbol",
              "type": "bytes32"
            },
            {
              "internalType": "uint256",
              "name": "price",
              "type": "uint256"
            },
            {
              "internalType": "uint256",
              "name": "amount",
              "type": "uint256"
            },
            {
              "internalType": "uint256",
              "name": "filled",
              "type": "uint256"
            },
            {
              "internalType": "uint256",
              "name": "date",
              "type": "uint256"
            }
          ],
          "internalType": "struct Dex.Order[]",
          "name": "",
          "type": "tuple[]"
        }
      ],
      "stateMutability": "view",
      "type": "function",
      "constant": true
    },
    {
      "inputs": [],
      "name": "getTokens",
      "outputs": [
        {
          "components": [
            {
              "internalType": "bytes32",
              "name": "symbol",
              "type": "bytes32"
            },
            {
              "internalType": "address",
              "name": "tokenAddress",
              "type": "address"
            }
          ],
          "internalType": "struct Dex.Token[]",
          "name": "",
          "type": "tuple[]"
        }
      ],
      "stateMutability": "view",
      "type": "function",
      "constant": true
    }
  ],
  "bytecode": "0x60806040526000600455600060055534801561001a57600080fd5b5033600660006101000a81548173ffffffffffffffffffffffffffffffffffffffff021916908373ffffffffffffffffffffffffffffffffffffffff1602179055506137148061006b6000396000f3fe608060405234801561001057600080fd5b50600436106100ea5760003560e01c806388a6d7021161008c578063aa6ca80811610066578063aa6ca8081461025a578063f47a0acc14610278578063f850240214610296578063f851a440146102cd576100ea565b806388a6d702146101ef578063904194a31461020d5780639776aacf1461023e576100ea565b806321024061116100c8578063210240611461015757806346e9658b146101735780636e7ddea8146101a357806380401b0a146101d3576100ea565b80631010d2e5146100ef5780631de26e161461010b5780631f14df6914610127575b600080fd5b61010960048036038101906101049190612d65565b6102eb565b005b61012560048036038101906101209190612c8b565b610e35565b005b610141600480360381019061013c9190612b85565b61105e565b60405161014e91906133fa565b60405180910390f35b610171600480360381019061016c9190612cc7565b611083565b005b61018d60048036038101906101889190612c4f565b61214f565b60405161019a9190613290565b60405180910390f35b6101bd60048036038101906101b89190612dc8565b61229d565b6040516101ca91906132d4565b60405180910390f35b6101ed60048036038101906101e89190612c8b565b6122be565b005b6101f7612578565b60405161020491906133fa565b60405180910390f35b61022760048036038101906102229190612bea565b61257e565b6040516102359291906132ef565b60405180910390f35b61025860048036038101906102539190612c13565b6125c2565b005b610262612711565b60405161026f91906132b2565b60405180910390f35b61028061284e565b60405161028d91906133fa565b60405180910390f35b6102b060048036038101906102ab9190612d16565b612854565b6040516102c4989796959493929190613415565b60405180910390f35b6102d56128f0565b6040516102e29190613215565b60405180910390f35b83600073ffffffffffffffffffffffffffffffffffffffff166002600083815260200190815260200160002060010160009054906101000a900473ffffffffffffffffffffffffffffffffffffffff1673ffffffffffffffffffffffffffffffffffffffff161415610392576040517f08c379a00000000000000000000000000000000000000000000000000000000081526004016103899061335a565b60405180910390fd5b847f44414900000000000000000000000000000000000000000000000000000000008114156103f6576040517f08c379a00000000000000000000000000000000000000000000000000000000081526004016103ed9061337a565b60405180910390fd5b60018081111561040257fe5b83600181111561040e57fe5b14156104ac5784600160003373ffffffffffffffffffffffffffffffffffffffff1673ffffffffffffffffffffffffffffffffffffffff16815260200190815260200160002060008881526020019081526020016000205410156104a7576040517f08c379a000000000000000000000000000000000000000000000000000000000815260040161049e906133da565b60405180910390fd5b610572565b6104bf848661291690919063ffffffff16565b600160003373ffffffffffffffffffffffffffffffffffffffff1673ffffffffffffffffffffffffffffffffffffffff16815260200190815260200160002060007f44414900000000000000000000000000000000000000000000000000000000008152602001908152602001600020541015610571576040517f08c379a0000000000000000000000000000000000000000000000000000000008152600401610568906133da565b60405180910390fd5b5b6000806000888152602001908152602001600020600085600181111561059457fe5b815260200190815260200160002090508060405180610100016040528060045481526020018660018111156105c557fe5b81526020013373ffffffffffffffffffffffffffffffffffffffff168152602001898152602001878152602001888152602001600081526020014281525090806001815401808255809150506001900390600052602060002090600702016000909190919091506000820151816000015560208201518160010160006101000a81548160ff0219169083600181111561065a57fe5b021790555060408201518160010160016101000a81548173ffffffffffffffffffffffffffffffffffffffff021916908373ffffffffffffffffffffffffffffffffffffffff160217905550606082015181600201556080820151816003015560a0820151816004015560c0820151816005015560e0820151816006015550506000808280549050116106ee576000610707565b6107066001838054905061298690919063ffffffff16565b5b905060018081111561071557fe5b85600181111561072157fe5b1415610a9d5760008190505b6000811115610a97578261074b60018361298690919063ffffffff16565b8154811061075557fe5b90600052602060002090600702016003015483828154811061077357fe5b9060005260206000209060070201600301541015610a7c57610793612a80565b83828154811061079f57fe5b906000526020600020906007020160405180610100016040529081600082015481526020016001820160009054906101000a900460ff1660018111156107e157fe5b60018111156107ec57fe5b81526020016001820160019054906101000a900473ffffffffffffffffffffffffffffffffffffffff1673ffffffffffffffffffffffffffffffffffffffff1673ffffffffffffffffffffffffffffffffffffffff1681526020016002820154815260200160038201548152602001600482015481526020016005820154815260200160068201548152505090508361088f60018461298690919063ffffffff16565b8154811061089957fe5b90600052602060002090600702018483815481106108b357fe5b9060005260206000209060070201600082015481600001556001820160009054906101000a900460ff168160010160006101000a81548160ff021916908360018111156108fc57fe5b02179055506001820160019054906101000a900473ffffffffffffffffffffffffffffffffffffffff168160010160016101000a81548173ffffffffffffffffffffffffffffffffffffffff021916908373ffffffffffffffffffffffffffffffffffffffff160217905550600282015481600201556003820154816003015560048201548160040155600582015481600501556006820154816006015590505080846109b360018561298690919063ffffffff16565b815481106109bd57fe5b90600052602060002090600702016000820151816000015560208201518160010160006101000a81548160ff021916908360018111156109f957fe5b021790555060408201518160010160016101000a81548173ffffffffffffffffffffffffffffffffffffffff021916908373ffffffffffffffffffffffffffffffffffffffff160217905550606082015181600201556080820151816003015560a0820151816004015560c0820151816005015560e08201518160060155905050505b610a9060018261298690919063ffffffff16565b905061072d565b50610e0f565b60008190505b6000811115610e0d5782610ac160018361298690919063ffffffff16565b81548110610acb57fe5b906000526020600020906007020160030154838281548110610ae957fe5b9060005260206000209060070201600301541115610df257610b09612a80565b838281548110610b1557fe5b906000526020600020906007020160405180610100016040529081600082015481526020016001820160009054906101000a900460ff166001811115610b5757fe5b6001811115610b6257fe5b81526020016001820160019054906101000a900473ffffffffffffffffffffffffffffffffffffffff1673ffffffffffffffffffffffffffffffffffffffff1673ffffffffffffffffffffffffffffffffffffffff16815260200160028201548152602001600382015481526020016004820154815260200160058201548152602001600682015481525050905083610c0560018461298690919063ffffffff16565b81548110610c0f57fe5b9060005260206000209060070201848381548110610c2957fe5b9060005260206000209060070201600082015481600001556001820160009054906101000a900460ff168160010160006101000a81548160ff02191690836001811115610c7257fe5b02179055506001820160019054906101000a900473ffffffffffffffffffffffffffffffffffffffff168160010160016101000a81548173ffffffffffffffffffffffffffffffffffffffff021916908373ffffffffffffffffffffffffffffffffffffffff16021790555060028201548160020155600382015481600301556004820154816004015560058201548160050155600682015481600601559050508084610d2960018561298690919063ffffffff16565b81548110610d3357fe5b90600052602060002090600702016000820151816000015560208201518160010160006101000a81548160ff02191690836001811115610d6f57fe5b021790555060408201518160010160016101000a81548173ffffffffffffffffffffffffffffffffffffffff021916908373ffffffffffffffffffffffffffffffffffffffff160217905550606082015181600201556080820151816003015560a0820151816004015560c0820151816005015560e08201518160060155905050505b610e0660018261298690919063ffffffff16565b9050610aa3565b505b610e2560016004546129d090919063ffffffff16565b6004819055505050505050505050565b81600073ffffffffffffffffffffffffffffffffffffffff166002600083815260200190815260200160002060010160009054906101000a900473ffffffffffffffffffffffffffffffffffffffff1673ffffffffffffffffffffffffffffffffffffffff161415610edc576040517f08c379a0000000000000000000000000000000000000000000000000000000008152600401610ed39061335a565b60405180910390fd5b6002600084815260200190815260200160002060010160009054906101000a900473ffffffffffffffffffffffffffffffffffffffff1673ffffffffffffffffffffffffffffffffffffffff166323b872dd3330856040518463ffffffff1660e01b8152600401610f4f93929190613230565b602060405180830381600087803b158015610f6957600080fd5b505af1158015610f7d573d6000803e3d6000fd5b505050506040513d601f19601f82011682018060405250810190610fa19190612bc1565b5061100582600160003373ffffffffffffffffffffffffffffffffffffffff1673ffffffffffffffffffffffffffffffffffffffff1681526020019081526020016000206000868152602001908152602001600020546129d090919063ffffffff16565b600160003373ffffffffffffffffffffffffffffffffffffffff1673ffffffffffffffffffffffffffffffffffffffff168152602001908152602001600020600085815260200190815260200160002081905550505050565b6001602052816000526040600020602052806000526040600020600091509150505481565b82600073ffffffffffffffffffffffffffffffffffffffff166002600083815260200190815260200160002060010160009054906101000a900473ffffffffffffffffffffffffffffffffffffffff1673ffffffffffffffffffffffffffffffffffffffff16141561112a576040517f08c379a00000000000000000000000000000000000000000000000000000000081526004016111219061335a565b60405180910390fd5b837f444149000000000000000000000000000000000000000000000000000000000081141561118e576040517f08c379a00000000000000000000000000000000000000000000000000000000081526004016111859061337a565b60405180910390fd5b600060018081111561119c57fe5b8460018111156111a857fe5b141561124a5784600160003373ffffffffffffffffffffffffffffffffffffffff1673ffffffffffffffffffffffffffffffffffffffff1681526020019081526020016000206000888152602001908152602001600020541015611241576040517f08c379a0000000000000000000000000000000000000000000000000000000008152600401611238906133da565b60405180910390fd5b6000905061124f565b600190505b6000806000888152602001908152602001600020600083815260200190815260200160002090506000808790505b8280549050821080156112905750600081115b15611ee15760006112e48484815481106112a657fe5b9060005260206000209060070201600501548585815481106112c457fe5b90600052602060002090600702016004015461298690919063ffffffff16565b905060008183116112f557826112f7565b815b905061130c818461298690919063ffffffff16565b925061133e8186868154811061131e57fe5b9060005260206000209060070201600501546129d090919063ffffffff16565b85858154811061134a57fe5b9060005260206000209060070201600501819055503373ffffffffffffffffffffffffffffffffffffffff1685858154811061138257fe5b906000526020600020906007020160010160019054906101000a900473ffffffffffffffffffffffffffffffffffffffff1673ffffffffffffffffffffffffffffffffffffffff168c7f9aa9dd988af157129eb8b1e1bea9520532dbaa5335590d73a74b9fb2b2be63f96005548989815481106113fb57fe5b9060005260206000209060070201600001548a8a8154811061141957fe5b906000526020600020906007020160030154874260405161143e959493929190613493565b60405180910390a460018081111561145257fe5b89600181111561145e57fe5b1415611917576114c781600160003373ffffffffffffffffffffffffffffffffffffffff1673ffffffffffffffffffffffffffffffffffffffff16815260200190815260200160002060008e81526020019081526020016000205461298690919063ffffffff16565b600160003373ffffffffffffffffffffffffffffffffffffffff1673ffffffffffffffffffffffffffffffffffffffff16815260200190815260200160002060008d8152602001908152602001600020819055506115cd61154e86868154811061152d57fe5b9060005260206000209060070201600301548361291690919063ffffffff16565b600160003373ffffffffffffffffffffffffffffffffffffffff1673ffffffffffffffffffffffffffffffffffffffff16815260200190815260200160002060007f44414900000000000000000000000000000000000000000000000000000000008152602001908152602001600020546129d090919063ffffffff16565b600160003373ffffffffffffffffffffffffffffffffffffffff1673ffffffffffffffffffffffffffffffffffffffff16815260200190815260200160002060007f44414900000000000000000000000000000000000000000000000000000000008152602001908152602001600020819055506116e1816001600088888154811061165557fe5b906000526020600020906007020160010160019054906101000a900473ffffffffffffffffffffffffffffffffffffffff1673ffffffffffffffffffffffffffffffffffffffff1673ffffffffffffffffffffffffffffffffffffffff16815260200190815260200160002060008e8152602001908152602001600020546129d090919063ffffffff16565b600160008787815481106116f157fe5b906000526020600020906007020160010160019054906101000a900473ffffffffffffffffffffffffffffffffffffffff1673ffffffffffffffffffffffffffffffffffffffff1673ffffffffffffffffffffffffffffffffffffffff16815260200190815260200160002060008d8152602001908152602001600020819055506118616117a586868154811061178457fe5b9060005260206000209060070201600301548361291690919063ffffffff16565b600160008888815481106117b557fe5b906000526020600020906007020160010160019054906101000a900473ffffffffffffffffffffffffffffffffffffffff1673ffffffffffffffffffffffffffffffffffffffff1673ffffffffffffffffffffffffffffffffffffffff16815260200190815260200160002060007f444149000000000000000000000000000000000000000000000000000000000081526020019081526020016000205461298690919063ffffffff16565b6001600087878154811061187157fe5b906000526020600020906007020160010160019054906101000a900473ffffffffffffffffffffffffffffffffffffffff1673ffffffffffffffffffffffffffffffffffffffff1673ffffffffffffffffffffffffffffffffffffffff16815260200190815260200160002060007f4441490000000000000000000000000000000000000000000000000000000000815260200190815260200160002081905550611ea8565b61194785858154811061192657fe5b9060005260206000209060070201600301548261291690919063ffffffff16565b600160003373ffffffffffffffffffffffffffffffffffffffff1673ffffffffffffffffffffffffffffffffffffffff16815260200190815260200160002060007f444149000000000000000000000000000000000000000000000000000000000081526020019081526020016000205410156119f9576040517f08c379a00000000000000000000000000000000000000000000000000000000081526004016119f0906133da565b60405180910390fd5b611a5c81600160003373ffffffffffffffffffffffffffffffffffffffff1673ffffffffffffffffffffffffffffffffffffffff16815260200190815260200160002060008e8152602001908152602001600020546129d090919063ffffffff16565b600160003373ffffffffffffffffffffffffffffffffffffffff1673ffffffffffffffffffffffffffffffffffffffff16815260200190815260200160002060008d815260200190815260200160002081905550611b62611ae3868681548110611ac257fe5b9060005260206000209060070201600301548361291690919063ffffffff16565b600160003373ffffffffffffffffffffffffffffffffffffffff1673ffffffffffffffffffffffffffffffffffffffff16815260200190815260200160002060007f444149000000000000000000000000000000000000000000000000000000000081526020019081526020016000205461298690919063ffffffff16565b600160003373ffffffffffffffffffffffffffffffffffffffff1673ffffffffffffffffffffffffffffffffffffffff16815260200190815260200160002060007f4441490000000000000000000000000000000000000000000000000000000000815260200190815260200160002081905550611c768160016000888881548110611bea57fe5b906000526020600020906007020160010160019054906101000a900473ffffffffffffffffffffffffffffffffffffffff1673ffffffffffffffffffffffffffffffffffffffff1673ffffffffffffffffffffffffffffffffffffffff16815260200190815260200160002060008e81526020019081526020016000205461298690919063ffffffff16565b60016000878781548110611c8657fe5b906000526020600020906007020160010160019054906101000a900473ffffffffffffffffffffffffffffffffffffffff1673ffffffffffffffffffffffffffffffffffffffff1673ffffffffffffffffffffffffffffffffffffffff16815260200190815260200160002060008d815260200190815260200160002081905550611df6611d3a868681548110611d1957fe5b9060005260206000209060070201600301548361291690919063ffffffff16565b60016000888881548110611d4a57fe5b906000526020600020906007020160010160019054906101000a900473ffffffffffffffffffffffffffffffffffffffff1673ffffffffffffffffffffffffffffffffffffffff1673ffffffffffffffffffffffffffffffffffffffff16815260200190815260200160002060007f44414900000000000000000000000000000000000000000000000000000000008152602001908152602001600020546129d090919063ffffffff16565b60016000878781548110611e0657fe5b906000526020600020906007020160010160019054906101000a900473ffffffffffffffffffffffffffffffffffffffff1673ffffffffffffffffffffffffffffffffffffffff1673ffffffffffffffffffffffffffffffffffffffff16815260200190815260200160002060007f44414900000000000000000000000000000000000000000000000000000000008152602001908152602001600020819055505b611ebe60016005546129d090919063ffffffff16565b600581905550611ed86001856129d090919063ffffffff16565b9350505061127d565b600091505b828054905082108015611f325750828281548110611f0057fe5b906000526020600020906007020160040154838381548110611f1e57fe5b906000526020600020906007020160050154145b156121445760008290505b611f556001858054905061298690919063ffffffff16565b81101561209a5783611f716001836129d090919063ffffffff16565b81548110611f7b57fe5b9060005260206000209060070201848281548110611f9557fe5b9060005260206000209060070201600082015481600001556001820160009054906101000a900460ff168160010160006101000a81548160ff02191690836001811115611fde57fe5b02179055506001820160019054906101000a900473ffffffffffffffffffffffffffffffffffffffff168160010160016101000a81548173ffffffffffffffffffffffffffffffffffffffff021916908373ffffffffffffffffffffffffffffffffffffffff16021790555060028201548160020155600382015481600301556004820154816004015560058201548160050155600682015481600601559050506120936001826129d090919063ffffffff16565b9050611f3d565b50828054806120a557fe5b60019003818190600052602060002090600702016000808201600090556001820160006101000a81549060ff02191690556001820160016101000a81549073ffffffffffffffffffffffffffffffffffffffff0219169055600282016000905560038201600090556004820160009055600582016000905560068201600090555050905561213d6001836129d090919063ffffffff16565b9150611ee6565b505050505050505050565b6060600080848152602001908152602001600020600083600181111561217157fe5b8152602001908152602001600020805480602002602001604051908101604052809291908181526020016000905b82821015612291578382906000526020600020906007020160405180610100016040529081600082015481526020016001820160009054906101000a900460ff1660018111156121eb57fe5b60018111156121f657fe5b81526020016001820160019054906101000a900473ffffffffffffffffffffffffffffffffffffffff1673ffffffffffffffffffffffffffffffffffffffff1673ffffffffffffffffffffffffffffffffffffffff168152602001600282015481526020016003820154815260200160048201548152602001600582015481526020016006820154815250508152602001906001019061219f565b50505050905092915050565b600381815481106122aa57fe5b906000526020600020016000915090505481565b81600073ffffffffffffffffffffffffffffffffffffffff166002600083815260200190815260200160002060010160009054906101000a900473ffffffffffffffffffffffffffffffffffffffff1673ffffffffffffffffffffffffffffffffffffffff161415612365576040517f08c379a000000000000000000000000000000000000000000000000000000000815260040161235c9061335a565b60405180910390fd5b81600160003373ffffffffffffffffffffffffffffffffffffffff1673ffffffffffffffffffffffffffffffffffffffff16815260200190815260200160002060008581526020019081526020016000205410156123f8576040517f08c379a00000000000000000000000000000000000000000000000000000000081526004016123ef906133da565b60405180910390fd5b6002600084815260200190815260200160002060010160009054906101000a900473ffffffffffffffffffffffffffffffffffffffff1673ffffffffffffffffffffffffffffffffffffffff1663a9059cbb33846040518363ffffffff1660e01b8152600401612469929190613267565b602060405180830381600087803b15801561248357600080fd5b505af1158015612497573d6000803e3d6000fd5b505050506040513d601f19601f820116820180604052508101906124bb9190612bc1565b5061251f82600160003373ffffffffffffffffffffffffffffffffffffffff1673ffffffffffffffffffffffffffffffffffffffff16815260200190815260200160002060008681526020019081526020016000205461298690919063ffffffff16565b600160003373ffffffffffffffffffffffffffffffffffffffff1673ffffffffffffffffffffffffffffffffffffffff168152602001908152602001600020600085815260200190815260200160002081905550505050565b60055481565b60026020528060005260406000206000915090508060000154908060010160009054906101000a900473ffffffffffffffffffffffffffffffffffffffff16905082565b600660009054906101000a900473ffffffffffffffffffffffffffffffffffffffff1673ffffffffffffffffffffffffffffffffffffffff163373ffffffffffffffffffffffffffffffffffffffff1614612652576040517f08c379a0000000000000000000000000000000000000000000000000000000008152600401612649906133ba565b60405180910390fd5b60405180604001604052808381526020018273ffffffffffffffffffffffffffffffffffffffff16815250600260008481526020019081526020016000206000820151816000015560208201518160010160006101000a81548173ffffffffffffffffffffffffffffffffffffffff021916908373ffffffffffffffffffffffffffffffffffffffff16021790555090505060038290806001815401808255809150506001900390600052602060002001600090919091909150555050565b60608060038054905067ffffffffffffffff8111801561273057600080fd5b5060405190808252806020026020018201604052801561276a57816020015b612757612ae9565b81526020019060019003908161274f5790505b50905060005b600380549050811015612846576040518060400160405280600260006003858154811061279957fe5b9060005260206000200154815260200190815260200160002060000154815260200160026000600385815481106127cc57fe5b9060005260206000200154815260200190815260200160002060010160009054906101000a900473ffffffffffffffffffffffffffffffffffffffff1673ffffffffffffffffffffffffffffffffffffffff1681525082828151811061282e57fe5b60200260200101819052508080600101915050612770565b508091505090565b60045481565b6000602052826000526040600020602052816000526040600020818154811061287957fe5b906000526020600020906007020160009250925050508060000154908060010160009054906101000a900460ff16908060010160019054906101000a900473ffffffffffffffffffffffffffffffffffffffff16908060020154908060030154908060040154908060050154908060060154905088565b600660009054906101000a900473ffffffffffffffffffffffffffffffffffffffff1681565b6000808314156129295760009050612980565b600082840290508284828161293a57fe5b041461297b576040517f08c379a00000000000000000000000000000000000000000000000000000000081526004016129729061339a565b60405180910390fd5b809150505b92915050565b60006129c883836040518060400160405280601e81526020017f536166654d6174683a207375627472616374696f6e206f766572666c6f770000815250612a25565b905092915050565b600080828401905083811015612a1b576040517f08c379a0000000000000000000000000000000000000000000000000000000008152600401612a129061333a565b60405180910390fd5b8091505092915050565b6000838311158290612a6d576040517f08c379a0000000000000000000000000000000000000000000000000000000008152600401612a649190613318565b60405180910390fd5b5060008385039050809150509392505050565b6040518061010001604052806000815260200160006001811115612aa057fe5b8152602001600073ffffffffffffffffffffffffffffffffffffffff16815260200160008019168152602001600081526020016000815260200160008152602001600081525090565b604051806040016040528060008019168152602001600073ffffffffffffffffffffffffffffffffffffffff1681525090565b600081359050612b2b81613672565b92915050565b600081519050612b4081613689565b92915050565b600081359050612b55816136a0565b92915050565b600081359050612b6a816136b7565b92915050565b600081359050612b7f816136c7565b92915050565b60008060408385031215612b9857600080fd5b6000612ba685828601612b1c565b9250506020612bb785828601612b46565b9150509250929050565b600060208284031215612bd357600080fd5b6000612be184828501612b31565b91505092915050565b600060208284031215612bfc57600080fd5b6000612c0a84828501612b46565b91505092915050565b60008060408385031215612c2657600080fd5b6000612c3485828601612b46565b9250506020612c4585828601612b1c565b9150509250929050565b60008060408385031215612c6257600080fd5b6000612c7085828601612b46565b9250506020612c8185828601612b5b565b9150509250929050565b60008060408385031215612c9e57600080fd5b6000612cac85828601612b46565b9250506020612cbd85828601612b70565b9150509250929050565b600080600060608486031215612cdc57600080fd5b6000612cea86828701612b46565b9350506020612cfb86828701612b70565b9250506040612d0c86828701612b5b565b9150509250925092565b600080600060608486031215612d2b57600080fd5b6000612d3986828701612b46565b9350506020612d4a86828701612b70565b9250506040612d5b86828701612b70565b9150509250925092565b60008060008060808587031215612d7b57600080fd5b6000612d8987828801612b46565b9450506020612d9a87828801612b70565b9350506040612dab87828801612b70565b9250506060612dbc87828801612b5b565b91505092959194509250565b600060208284031215612dda57600080fd5b6000612de884828501612b70565b91505092915050565b6000612dfd8383613126565b6101008301905092915050565b6000612e1683836131c8565b60408301905092915050565b612e2b816135d9565b82525050565b612e3a81613574565b82525050565b612e4981613574565b82525050565b6000612e5a82613506565b612e648185613541565b9350612e6f836134e6565b8060005b83811015612ea0578151612e878882612df1565b9750612e9283613527565b925050600181019050612e73565b5085935050505092915050565b6000612eb882613511565b612ec28185613552565b9350612ecd836134f6565b8060005b83811015612efe578151612ee58882612e0a565b9750612ef083613534565b925050600181019050612ed1565b5085935050505092915050565b612f1481613592565b82525050565b612f2381613592565b82525050565b612f32816135eb565b82525050565b612f41816135eb565b82525050565b6000612f528261351c565b612f5c8185613563565b9350612f6c818560208601613621565b612f7581613654565b840191505092915050565b6000612f8d601b83613563565b91507f536166654d6174683a206164646974696f6e206f766572666c6f7700000000006000830152602082019050919050565b6000612fcd601483613563565b91507f546f6b656e20646f6573206e6f742065786973740000000000000000000000006000830152602082019050919050565b600061300d601483613563565b91507f4441492063616e6e6f74206265207472616465640000000000000000000000006000830152602082019050919050565b600061304d602183613563565b91507f536166654d6174683a206d756c7469706c69636174696f6e206f766572666c6f60008301527f77000000000000000000000000000000000000000000000000000000000000006020830152604082019050919050565b60006130b3600a83613563565b91507f4f6e6c792041646d696e000000000000000000000000000000000000000000006000830152602082019050919050565b60006130f3601183613563565b91507f4e6f7420656e6f75676820746f6b656e730000000000000000000000000000006000830152602082019050919050565b6101008201600082015161313d60008501826131f7565b5060208201516131506020850182612f29565b5060408201516131636040850182612e31565b5060608201516131766060850182612f0b565b50608082015161318960808501826131f7565b5060a082015161319c60a08501826131f7565b5060c08201516131af60c08501826131f7565b5060e08201516131c260e08501826131f7565b50505050565b6040820160008201516131de6000850182612f0b565b5060208201516131f16020850182612e31565b50505050565b613200816135cf565b82525050565b61320f816135cf565b82525050565b600060208201905061322a6000830184612e40565b92915050565b60006060820190506132456000830186612e22565b6132526020830185612e40565b61325f6040830184613206565b949350505050565b600060408201905061327c6000830185612e22565b6132896020830184613206565b9392505050565b600060208201905081810360008301526132aa8184612e4f565b905092915050565b600060208201905081810360008301526132cc8184612ead565b905092915050565b60006020820190506132e96000830184612f1a565b92915050565b60006040820190506133046000830185612f1a565b6133116020830184612e40565b9392505050565b600060208201905081810360008301526133328184612f47565b905092915050565b6000602082019050818103600083015261335381612f80565b9050919050565b6000602082019050818103600083015261337381612fc0565b9050919050565b6000602082019050818103600083015261339381613000565b9050919050565b600060208201905081810360008301526133b381613040565b9050919050565b600060208201905081810360008301526133d3816130a6565b9050919050565b600060208201905081810360008301526133f3816130e6565b9050919050565b600060208201905061340f6000830184613206565b92915050565b60006101008201905061342b600083018b613206565b613438602083018a612f38565b6134456040830189612e40565b6134526060830188612f1a565b61345f6080830187613206565b61346c60a0830186613206565b61347960c0830185613206565b61348660e0830184613206565b9998505050505050505050565b600060a0820190506134a86000830188613206565b6134b56020830187613206565b6134c26040830186613206565b6134cf6060830185613206565b6134dc6080830184613206565b9695505050505050565b6000819050602082019050919050565b6000819050602082019050919050565b600081519050919050565b600081519050919050565b600081519050919050565b6000602082019050919050565b6000602082019050919050565b600082825260208201905092915050565b600082825260208201905092915050565b600082825260208201905092915050565b600061357f826135af565b9050919050565b60008115159050919050565b6000819050919050565b60008190506135aa82613665565b919050565b600073ffffffffffffffffffffffffffffffffffffffff82169050919050565b6000819050919050565b60006135e4826135fd565b9050919050565b60006135f68261359c565b9050919050565b60006136088261360f565b9050919050565b600061361a826135af565b9050919050565b60005b8381101561363f578082015181840152602081019050613624565b8381111561364e576000848401525b50505050565b6000601f19601f8301169050919050565b6002811061366f57fe5b50565b61367b81613574565b811461368657600080fd5b50565b61369281613586565b811461369d57600080fd5b50565b6136a981613592565b81146136b457600080fd5b50565b600281106136c457600080fd5b50565b6136d0816135cf565b81146136db57600080fd5b5056fea2646970667358221220dfe33d1ffd176b88e7315f21c3409b24b6735a92b6007cc6d26c20b88e2d215464736f6c634300060c0033",
  "immutableReferences": {},
  "source": "// SPDX-License-Identifier: MIT\r\n\r\npragma solidity 0.6.12;\r\npragma experimental ABIEncoderV2;\r\n\r\nimport '@openzeppelin/contracts/token/ERC20/IERC20.sol';\r\nimport '@openzeppelin/contracts/math/SafeMath.sol';\r\n\r\ncontract Dex {\r\n    \r\n    using SafeMath for uint;\r\n    \r\n    // Type of Exchange Order - BUY or SELL\r\n    enum OrderOperation { BUY, SELL }\r\n    \r\n    // Trade Event\r\n    event Trade(uint tradeId, uint orderId, bytes32 indexed symbol, uint price, uint amount, uint date, address indexed trader1, address indexed trader2);\r\n    \r\n    /*  \r\n       Struct about a Token instance - Symbol and Address\r\n       symbol = LINK\r\n       tokenAddress = 0x514910771af9ca656af840dff83e8264ecf986ca\r\n    */\r\n    struct Token {\r\n        bytes32 symbol;\r\n        address tokenAddress;\r\n    }\r\n    \r\n    /*  \r\n       Exchange Orders (Buy or Sell)\r\n       uint = 1\r\n       operation = BUY\r\n       symbol = LINK\r\n       price = 20\r\n       amount = 10\r\n       filled = 0\r\n       date = now\r\n    */\r\n    struct Order {\r\n        uint id;\r\n        OrderOperation operation;\r\n        address trader;\r\n        bytes32 symbol;\r\n        uint price;\r\n        uint amount;\r\n        uint filled;\r\n        uint date;\r\n    }\r\n    \r\n    /*  \r\n        Orderbook (Buy and Sell) - Collection of Orders\r\n        {\r\n            LINK: {\r\n                0: [Order(0, BUY, LINK, 20, 5, 0, now), Order(1, BUY, LINK, 20, 40, 0, now)], // You want keep them in desc order (50, 40, 30, 20) - max price first\r\n                1: [Order(2, SELL, LINK, 20, 10, 0, now), Order(3, SELL, LINK, 20, 20, 0, now)], // You want keep them in asc order (50, 60, 70, 80) - min price first\r\n            },\r\n            BNB: {\r\n                0: [...],\r\n                1: [...]\r\n            }\r\n        }\r\n    */\r\n    mapping(bytes32 => mapping(uint => Order[])) public orderbook;\r\n    \r\n    /*  \r\n        Collection of each user address to represent the token balance for each token\r\n        {\r\n            0x7133079C6721165F0344f12F077d9006Fecb8523: {\r\n                LINK: 3,\r\n                BNB: 4.25,\r\n                YFI: 18.75\r\n            },\r\n            0x4f6bA06A6db2cCC4BEe008d54979820049669aa8: {\r\n                BNB: 300.10\r\n            }\r\n        }\r\n    */\r\n    mapping(address => mapping(bytes32 => uint)) public balances;\r\n    \r\n    /*  \r\n        Collection of tokens\r\n        {\r\n            LINK: Token(LINK, 0x514910771af9ca656af840dff83e8264ecf986ca),\r\n            BNB: Token(BNB, 0xB8c77482e45F1F44dE1745F52C74426C631bDD52),\r\n            YFI: Token(YFI, 0x0bc529c00C6401aEF6D220BE8C6Ea1667F6Ad93e)\r\n        }\r\n    */\r\n    mapping(bytes32 => Token) public tokens;\r\n    \r\n    /*  \r\n        List of Token Symbols (ids) so we can iterate ** We can't easily iterate over a mapping **\r\n        ['BNB', 'LINK', 'YFI']\r\n    */\r\n    bytes32[] public tokenSymbols;\r\n    \r\n    // Keep track of order IDS\r\n    uint public nextOrderID = 0;\r\n\r\n    // Keep track of trade IDS\r\n    uint public nextTradeID = 0;\r\n    \r\n    /*  \r\n        Address of creator/admin of Smart Contract\r\n        admin = 0x7133079C6721165F0344f12F077d9006Fecb8523\r\n    */\r\n    address public admin;\r\n    \r\n    // DAI\r\n    bytes32 constant DAI = bytes32('DAI');\r\n    \r\n    // Assign address at creation\r\n    constructor() public {\r\n        admin = msg.sender;\r\n    }\r\n    \r\n    // Add token to collections\r\n    function addToken(bytes32 symbol, address tokenAddress) onlyAdmin() external {\r\n        tokens[symbol] = Token(symbol, tokenAddress);\r\n        tokenSymbols.push(symbol);\r\n    }\r\n    \r\n    // Deposit Tokens to Exchange\r\n    function deposit(bytes32 symbol, uint amount) tokenExists(symbol) external {\r\n        IERC20(tokens[symbol].tokenAddress).transferFrom(msg.sender, address(this), amount);\r\n        balances[msg.sender][symbol] = balances[msg.sender][symbol].add(amount);\r\n    }\r\n    \r\n    // Widthraw Tokens from Exchange\r\n    function widthraw(bytes32 symbol, uint amount) tokenExists(symbol) external {\r\n        require(balances[msg.sender][symbol] >= amount, 'Not enough tokens');\r\n        IERC20(tokens[symbol].tokenAddress).transfer(msg.sender, amount);\r\n        balances[msg.sender][symbol] = balances[msg.sender][symbol].sub(amount);\r\n    }\r\n    \r\n    // Limit Order\r\n    function limitOrder(bytes32 symbol, uint amount, uint price, OrderOperation operation) tokenExists(symbol) isNotDai(symbol) external {\r\n        if(operation == OrderOperation.SELL) {\r\n            // You cannot sell more tokens that what you currently have\r\n            require(balances[msg.sender][symbol] >= amount, 'Not enough tokens');\r\n        } else {\r\n            // You cannot buy tokens if you don't have enough balance - Remember you buy tokens with respect to DAI\r\n            require(balances[msg.sender][DAI] >= amount.mul(price), 'Not enough tokens');\r\n        }\r\n\r\n        // Add order to orderbook for the given symbol\r\n        Order[] storage orders = orderbook[symbol][uint(operation)]; // orderbook[LINK][0] -> 0 means BUY and 1 means SELL\r\n        orders.push(Order(nextOrderID, operation, msg.sender, symbol, price, amount, 0, now));\r\n\r\n        // Sort orderbook (last order) - Insertion Sort with complexity of O(n)\r\n        // If it a SELL order, we want to sort in ASC (smallest to largest)\r\n        uint ordersLength = orders.length > 0 ? orders.length.sub(1) : 0;\r\n        if(operation == OrderOperation.SELL) {\r\n            for (uint i = ordersLength; i > 0; i = i.sub(1)) {\r\n                if (orders[i].price < orders[i.sub(1)].price) {\r\n                    Order memory order = orders[i];\r\n                    orders[i] = orders[i.sub(1)];\r\n                    orders[i.sub(1)] = order;\r\n                }\r\n            }\r\n        }\r\n        // If it a BUY order, we want to sort in DESC (largest to smallest)\r\n        else {\r\n            for (uint i = ordersLength; i > 0; i = i.sub(1)) {\r\n                if (orders[i].price > orders[i.sub(1)].price) {\r\n                    Order memory order = orders[i];\r\n                    orders[i] = orders[i.sub(1)];\r\n                    orders[i.sub(1)] = order;\r\n                }\r\n            }          \r\n        }\r\n        \r\n        // Increment OrderID\r\n        nextOrderID = nextOrderID.add(1);\r\n        \r\n    }\r\n    \r\n    // Market Order\r\n    function marketOrder(bytes32 symbol, uint amount, OrderOperation operation) tokenExists(symbol) isNotDai(symbol) external {\r\n        // Get int OrderOperation (0 - Buy | 1 - Sell)\r\n        uint op;\r\n        if(operation == OrderOperation.SELL) {\r\n            // You cannot sell more tokens that what you currently have\r\n            require(balances[msg.sender][symbol] >= amount, 'Not enough tokens');\r\n            op = 0; // Opposite - Since it is a SELL order we want to get the max BUY price\r\n        } else {\r\n            op = 1; // Opposite - Since it is a BUY order we want to get the min SELL price\r\n        }\r\n        \r\n        Order[] storage orders = orderbook[symbol][op];\r\n        \r\n        // Start filling the order\r\n        uint i = 0;\r\n        uint remaining = amount;\r\n        while(i < orders.length && remaining > 0) {\r\n            // Find liquidity\r\n            uint available = orders[i].amount.sub(orders[i].filled);\r\n            uint matched = (remaining > available) ? available : remaining;\r\n            remaining = remaining.sub(matched);\r\n            orders[i].filled = orders[i].filled.add(matched);\r\n            // Emit Trade\r\n            emit Trade(nextTradeID, orders[i].id, symbol, orders[i].price, matched, now, orders[i].trader, msg.sender);\r\n            // Update Balance\r\n            if (operation == OrderOperation.SELL) {\r\n                // Trader1\r\n                balances[msg.sender][symbol] = balances[msg.sender][symbol].sub(matched);\r\n                balances[msg.sender][DAI] = balances[msg.sender][DAI].add(matched.mul(orders[i].price));\r\n                // Trader2\r\n                balances[orders[i].trader][symbol] = balances[orders[i].trader][symbol].add(matched);\r\n                balances[orders[i].trader][DAI] = balances[orders[i].trader][DAI].sub(matched.mul(orders[i].price));\r\n            } else {\r\n                // You cannot buy tokens if you don't have enough balance - Remember you buy tokens with respect to DAI\r\n                require(balances[msg.sender][DAI] >= matched.mul(orders[i].price), 'Not enough tokens');\r\n                // Trader1\r\n                balances[msg.sender][symbol] = balances[msg.sender][symbol].add(matched);\r\n                balances[msg.sender][DAI] = balances[msg.sender][DAI].sub(matched.mul(orders[i].price));\r\n                // Trader2\r\n                balances[orders[i].trader][symbol] = balances[orders[i].trader][symbol].sub(matched);\r\n                balances[orders[i].trader][DAI] = balances[orders[i].trader][DAI].add(matched.mul(orders[i].price));\r\n            }\r\n            \r\n            // Increment TradeID\r\n            nextTradeID = nextTradeID.add(1);\r\n            \r\n            i = i.add(1);\r\n        }\r\n        \r\n        // Clean OrderBook if order has been filled\r\n        i = 0;\r\n        while (i < orders.length && orders[i].filled == orders[i].amount) {\r\n            for(uint j = i; j < orders.length.sub(1); j = j.add(1)) {\r\n                orders[j] = orders[j.add(1)];\r\n            }\r\n            orders.pop();\r\n            i = i.add(1);\r\n        }\r\n    }\r\n    \r\n    // Return Orders\r\n    function getOrders(bytes32 symbol, OrderOperation operation) external view returns(Order[] memory) {\r\n        return orderbook[symbol][uint(operation)];\r\n    }\r\n    \r\n    // Return Tokens\r\n    function getTokens() external view returns(Token[] memory) {\r\n        Token[] memory toks = new Token[](tokenSymbols.length);\r\n        for (uint i = 0; i < tokenSymbols.length; i++) {\r\n            toks[i] = Token(tokens[tokenSymbols[i]].symbol, tokens[tokenSymbols[i]].tokenAddress);\r\n        }\r\n        return toks;\r\n    }\r\n    \r\n    // Token Modifer - Assert Token exists in collections\r\n    // address(0) is the default address for an undefined element with a type of address\r\n    modifier tokenExists(bytes32 symbol) {\r\n        require(tokens[symbol].tokenAddress != address(0), 'Token does not exist');\r\n        _;\r\n    }\r\n    \r\n    // DAI Modifier - Assert DAI is not being used to trade\r\n    modifier isNotDai(bytes32 symbol) {\r\n        require(symbol != DAI, 'DAI cannot be traded');\r\n        _;\r\n    }\r\n    \r\n    // Admin Modifier - Only Andmin can access\r\n    modifier onlyAdmin() {\r\n        require(msg.sender == admin, 'Only Admin');\r\n        _;\r\n    }\r\n    \r\n}",
  "sourcePath": "C:/Users/Alex/Documents/projects/derx/contracts/Dex.sol",
  "compiler": {
    "name": "solc",
    "version": "0.6.12+commit.27d51765.Emscripten.clang"
  },
  "schemaVersion": "3.2.3",
  "updatedAt": "2020-09-08T23:31:26.423Z",
  "networkType": "ethereum",
  "devdoc": {
    "kind": "dev",
    "methods": {},
    "version": 1
  },
  "userdoc": {
    "kind": "user",
    "methods": {},
    "version": 1
  }
}